:100000000C9483000C94B4000C94B4000C94B400D1
:100010000C94B4000C94B4000C94B4000C94B40090
:100020000C94B4000C94B4000C94B4000C94B40080
:100030000C94B4000C94B4000C94B4000C94B40070
:100040000C94B4000C94B4000C94B4000C94B40060
:100050000C94B4000C94B4000C94B4000C94D2042E
:100060000C94B4000C94B4000C94B4000C94B40040
:100070000C94B4000C94B4000C94B4000C94B40030
:100080000C94B4000C94B4000C94B4000C94B40020
:100090000C949C040C9472040C94B4000C94B40062
:1000A0000C94B4000C94B4000C94B4000C94B40000
:1000B0000C94B4000C94B4000C94B4000C94B400F0
:1000C0000C94B4000C94B4000C94B4000C943C0454
:1000D0000C9412040C94B4000C94B4000C94B4006E
:1000E0000C94B4000C9465010C94B5010C940A01B5
:1000F0000C9473010C941C050C94DD000C9402020A
:100100000C9419011C0511241FBECFEFD1E2DEBFF4
:10011000CDBF00E00CBF23E0A6E2B2E001C01D921B
:10012000AF36B207E1F712E0A0E0B2E0E0E4F2E1BE
:1001300000E00BBF02C007900D92A632B107D9F7BD
:1001400010E0C3E8D0E000E006C021970109802F4D
:10015000FE010E940007C238D10780E00807A9F716
:100160000E946F050C941E090C940000FC01A089EC
:10017000B18982E08C93A485B5851C92A685B7854C
:100180008FEC8C93108EA489B58986E08C93A2891C
:10019000B3898C9180618C93A289B3898C9188609A
:1001A0008C93A289B3898C9180688C930288F3899F
:1001B000E02D80818F7D80830895AF92BF92CF9292
:1001C000DF92EF92FF920F931F93CF93DF936C0117
:1001D0007B018B01040F151FEB015E01AE18BF08F8
:1001E000C017D10759F06991D601ED91FC910190AA
:1001F000F081E02DC6011995892B79F7C501DF91B2
:10020000CF911F910F91FF90EF90DF90CF90BF9013
:10021000AF900895FC01538D448D252F30E0842F3D
:1002200090E0821B930B541710F0CF96089501971E
:100230000895FC01918D828D981761F0A28DAE0F0B
:10024000BF2FB11D5D968C91928D9F5F9F73928F92
:1002500090E008958FEF9FEF0895CF93DF93EC0127
:100260002FB7F89480912D0290912E02A0912F0229
:10027000B09130022FBF88879987AA87BB87CE01AC
:100280000E94190197FF1EC02FB7F89480912D028C
:1002900090912E02A0912F02B09130022FBF48857D
:1002A00059856A857B85841B950BA60BB70B4C8102
:1002B0005D816E817F8184179507A607B707F8F2E5
:1002C0008FEF9FEFDF91CF910895FC01918D828D8B
:1002D000981731F0828DE80FF11D858D90E008951B
:1002E0008FEF9FEF0895FC01918D228D892F90E073
:1002F000805C9F4F821B91098F739927089581E33A
:1003000092E00E94730121E0892B09F420E0822F02
:1003100008958EEC92E00E94730121E0892B09F48C
:1003200020E0822F0895FC01A48DA80FB92FB11DE4
:10033000A35ABF4F2C91848D90E001968F7399271B
:10034000848FA689B7892C93A089B1898C918370F9
:1003500080648C93938D848D981306C00288F389F2
:10036000E02D80818F7D80830895EF92FF920F931F
:100370001F93CF93DF93EC0181E0888F9B8D8C8D51
:1003800098131AC0E889F989808185FF15C09FB745
:10039000F894EE89FF896083E889F9898081837008
:1003A000806480839FBF81E090E0DF91CF911F91B7
:1003B0000F91FF90EF900895F62E0B8D10E00F5FD8
:1003C0001F4F0F731127E02E8C8D8E110CC00FB6AE
:1003D00007FCFACFE889F989808185FFF5CFCE0146
:1003E0000E949301F1CFEB8DEC0FFD2FF11DE35A2D
:1003F000FF4FF0829FB7F8940B8FEA89FB898081C9
:100400008062CFCFCF93DF93EC01888D8823B9F042
:10041000AA89BB89E889F9898C9185FD03C080810F
:1004200086FD0DC00FB607FCF7CF8C9185FFF2CF8C
:10043000808185FFEDCFCE010E949301E9CFDF914E
:10044000CF91089580E090E0892B49F080E090E022
:10045000892B29F00E94000081110E94000080E099
:1004600090E0892B29F00E94890181110E940000EF
:1004700080E090E0892B29F00E947F0181110E9489
:10048000000080E090E0892B49F080E090E0892B2B
:1004900029F00E94000081110C94000008953FB7DC
:1004A000F8948091270290912802A0912902B0919E
:1004B0002A0226B5A89B05C02F3F19F00196A11D61
:1004C000B11D3FBFBA2FA92F982F8827BC01CD019E
:1004D000620F711D811D911D42E0660F771F881FFD
:1004E000991F4A95D1F708958F929F92AF92BF922C
:1004F000CF92DF92EF92FF920E944F024B015C017C
:100500008AE0C82ED12CE12CF12C0E944F026819F0
:1005100079098A099B09683E734081059105A8F312
:1005200021E0C21AD108E108F10888EE880E83E0C4
:10053000981EA11CB11CC114D104E104F10429F7D7
:10054000FF90EF90DF90CF90BF90AF909F908F90F3
:10055000089542E050E068E172E00C94DD00CF9332
:10056000DF93FC0101900020E9F73197AF01481BB0
:10057000590BBC0181E392E00E94DD00EC0181E3B4
:1005800092E00E94A9028C0F9D1FDF91CF910895E8
:10059000FC0180819181009711F00C94A4070895CB
:1005A000AF92BF92CF92DF92EF92FF920F931F9381
:1005B000CF93DF93DC01CD90DC901197C114D1046F
:1005C00039F01496CD91DC918C017601209761F47D
:1005D000DF91CF911F910F91FF90EF90DF90CF901F
:1005E000BF90AF90089575015701BFEFAB1ABB0ADA
:1005F000F7018081082E000C990B0E94E406892BDC
:1006000091F72197CC0DDD1D8881082E000C990BE8
:100610000E94E406892B29F0CE15DF0510F0219702
:10062000F3CFAE014F5F5F4F4E195F09D8011596AA
:100630005C934E931497CE14DF0420F4B701C601E7
:100640000E940E09D801ED91FC91119714968D919D
:100650009C91E80FF91F1082BBCF0F931F93CF938C
:10066000DF93EC0188819981009759F02A813B81C1
:100670002617370730F081E0DF91CF911F910F915E
:1006800008958B016F5F7F4F0E942D08009759F0EE
:10069000998388831B830A832C813D81232B59F7FF
:1006A000FC011082E8CF80E0E7CFEF92FF920F933A
:1006B0001F93CF93DF93EC017B018A01BA010E9463
:1006C0002D0328813981811114C02115310519F0BC
:1006D000C9010E94A407198218821D821C821B82F4
:1006E0001A82CE01DF91CF911F910F91FF90EF9071
:1006F00008951D830C83B701C9010E941709F1CF2A
:10070000CF92DF92EF92FF920F931F93CF93DF93DD
:100710001F921F92CDB7DEB78C016B01FC011182D5
:100720001082138212821582148250E040E06AE146
:1007300072E00E945503C6010E942D0197FD21C061
:100740008A309105F1F089831A82F801E480F580FE
:10075000FFEFEF1AFF0AB701C8010E942D0388239B
:1007600051F3F8012081318184819581BE016F5F51
:100770007F4F820F931F0E941709F801F582E482D0
:10078000DACFC8010F900F90DF91CF911F910F9199
:10079000FF90EF90DF90CF9008950F931F93CF932A
:1007A000DF93CDB7DEB768970FB6F894DEBF0FBE04
:1007B000CDBF80912B0290912C021C8A1B8A1E8A2D
:1007C0001D8A188E1F8A4AE08E010F5F1F4FB801E5
:1007D0000E94AA06F80101900020E9F73197AF01C5
:1007E000401B510BB801CE0143960E9455034F891F
:1007F000588D6B897C898EEC92E00E94DD008EEC36
:1008000092E00E94A902CE0143960E94C802689617
:100810000FB6F894DEBF0FBECDBFDF91CF911F9111
:100820000F9108951F920F920FB60F9211240BB6DD
:100830000F922F933F934F935F936F937F938F9379
:100840009F93AF93BF93EF93FF9381E392E00E9456
:100850009301FF91EF91BF91AF919F918F917F9104
:100860006F915F914F913F912F910F900BBE0F9021
:100870000FBE0F901F9018951F920F920FB60F92F8
:1008800011240BB60F922F938F939F93EF93FF93A7
:10089000E0914102F09142028081E0914702F091A3
:1008A000480282FD1DC0908180914A028F5F8F7344
:1008B00020914B02821741F0E0914A02F0E0EF5C98
:1008C000FD4F958F80934A02FF91EF919F918F91F9
:1008D0002F910F900BBE0F900FBE0F901F90189589
:1008E0008081F2CF1F920F920FB60F9211240BB698
:1008F0000F922F933F934F935F936F937F938F93B9
:100900009F93AF93BF93EF93FF938EEC92E00E947F
:100910009301FF91EF91BF91AF919F918F917F9143
:100920006F915F914F913F912F910F900BBE0F9060
:100930000FBE0F901F9018951F920F920FB60F9237
:1009400011240BB60F922F938F939F93EF93FF93E6
:10095000E091DE02F091DF028081E091E402F0910B
:10096000E50282FD1DC090818091E7028F5F8F7349
:100970002091E802821741F0E091E702F0E0E253B3
:10098000FD4F958F8093E702FF91EF919F918F919B
:100990002F910F900BBE0F900FBE0F901F901895C8
:1009A0008081F2CF1F920F920FB60F9211242F93D6
:1009B0003F938F939F93AF93BF9380912D0290911C
:1009C0002E02A0912F02B09130023091260223E036
:1009D000230F2D3758F50196A11DB11D2093260236
:1009E00080932D0290932E02A0932F02B093300299
:1009F0008091270290912802A0912902B0912A02A9
:100A00000196A11DB11D8093270290932802A09307
:100A10002902B0932A02BF91AF919F918F913F918C
:100A20002F910F900FBE0F901F90189526E8230F5F
:100A30000296A11DB11DD2CFE1E3F2E01382128232
:100A400048EE53E060E070E044835583668377832B
:100A50008AE092E09183808325ED30E0358724871A
:100A600024ED30E03787268720ED30E0318B208B76
:100A700021ED30E0338B228B22ED30E0358B248B5F
:100A800026ED30E0378B268B118E128E138E148E4E
:100A9000EEECF2E0138212824483558366837783FF
:100AA000918380838DEC90E0958784878CEC90E037
:100AB0009787868788EC90E0918B808B89EC90E01B
:100AC000938B828B8AEC90E0958B848B8EEC90E0FC
:100AD000978B868B118E128E138E148E0895CF9362
:100AE000DF93CDB7DEB762970FB6F894DEBF0FBEC7
:100AF000CDBF789484B5826084BD84B5816084BDA7
:100B000085B5826085BD85B5816085BD80916E00AB
:100B1000816080936E0010928100809181008260DC
:100B20008093810080918100816080938100809119
:100B300080008160809380008091B1008460809308
:100B4000B1008091B00081608093B00080919100ED
:100B500082608093910080919100816080939100E8
:100B6000809190008160809390008091A1008260CC
:100B70008093A1008091A10081608093A100809169
:100B8000A00081608093A000809121018260809309
:100B900021018091210181608093210180912001B8
:100BA00081608093200180917A00846080937A0034
:100BB00080917A00826080937A0080917A008160CF
:100BC00080937A0080917A00806880937A001092F6
:100BD000C10081E392E00E94B6008EEC92E00E9498
:100BE000B6000E94CD0302E010E081E392E00E9493
:100BF0007301892BD9F061E372E0CE0101960E9466
:100C00008003CE0101960E94D00289819A810097CB
:100C100009F45AC00E94830670932C0260932B0241
:100C20000E94CD03CE0101960E94C8028EEC92E094
:100C30000E947301892B09F461C06EEC72E0CE0151
:100C40000D960E948003CE010D960E94D002188658
:100C50001F821A8619861C861B866D857E85611506
:100C6000710531F049895A89CE0107960E945503D2
:100C70008F819885009761F10E948306672BB1F1FF
:100C80008BE192E00E94AF026EEC72E0CE01019621
:100C90000E948003CE0101960E94D00289819A8130
:100CA000C12CD12C7601009721F00E9483066B01A4
:100CB0007C01CE0101960E94C802CD28CE28CF2803
:100CC00059F00E947402E0CF60E070E0CB01A4CF45
:100CD00060E070E0CB01D2CF10932C0200932B0286
:100CE0000E94CD0380E292E00E94AF02CE010796FF
:100CF0000E94C802CE010D960E94C8020E94740292
:100D00000E94220272CF1F93FC0199278827BC0101
:100D1000E89411911032E9F3193010F01E30C8F345
:100D20001B3251F01D3249F4689406C00E94B5068A
:100D3000610F711D811D911D119110531A30B0F377
:100D40003EF490958095709561957F4F8F4F9F4FA2
:100D50001F910895BB274A3031F4992322F4BDE254
:100D6000909581959F4F0C94CB06592F482F372F84
:100D7000262F660F771F881F991F660F771F881F02
:100D8000991F620F731F841F951F660F771F881F9F
:100D9000991F0895BB27FB015527AA27880F991F84
:100DA000AA1FA41710F0A41B83955051B9F7A05D9A
:100DB000AA3308F0A95DA193009779F7B111B19317
:100DC0001192CB010C94ED0691110C94FD0680322A
:100DD00019F089508550C8F70895DC01FC01672F90
:100DE00071917723E1F7329704C07C916D93708302
:100DF0006291AE17BF07C8F3089599278827089511
:100E0000EE0FFF1F881F8BBF0790F691E02D1994FE
:100E10000F931F93CF93DF938230910510F482E0FC
:100E200090E0E0916D03F0916E0330E020E0B0E0DF
:100E3000A0E0309799F42115310509F44AC0281B28
:100E4000390B24303105D8F58A819B8161157105F4
:100E500089F1FB0193838283FE0111C0408151819E
:100E60000281138148175907E0F04817590799F490
:100E7000109761F012960C93129713961C9332966A
:100E8000CF01DF91CF911F910F91089500936D03D2
:100E900010936E03F4CF2115310551F0421753071B
:100EA00038F0A901DB019A01BD01DF01F801C1CFD2
:100EB000EF01F9CF90936E0380936D03CDCFFE01C8
:100EC000E20FF31F819391932250310939832883D4
:100ED000D7CF20916B0330916C03232B41F42091E9
:100EE00002023091030230936C0320936B03209134
:100EF0000002309101022115310541F42DB73EB7B2
:100F00004091040250910502241B350BE0916B03C4
:100F1000F0916C03E217F307A0F42E1B3F0B281788
:100F2000390778F0AC014E5F5F4F2417350748F062
:100F30004E0F5F1F50936C0340936B03819391930B
:100F40009FCFF0E0E0E09CCFCF93DF930097E9F0F4
:100F5000FC01329713821282A0916D03B0916E034F
:100F6000ED0130E020E01097A1F420813181820F63
:100F7000931F20916B0330916C032817390709F0F8
:100F800061C0F0936C03E0936B03DF91CF91089500
:100F9000EA01CE17DF07E8F54A815B819E01411522
:100FA0005105B1F7E901FB83EA8349915991C40FD7
:100FB000D51FEC17FD0761F4808191810296840FA3
:100FC000951FE90199838883828193819B838A831A
:100FD000F0E0E0E012968D919C9113970097B9F59F
:100FE0002D913C911197CD010296820F931F209174
:100FF0006B0330916C032817390739F6309751F598
:1010000010926E0310926D03B0936C03A0936B0368
:10101000BCCFD383C28340815181840F951FC817F1
:10102000D90761F44E5F5F4F88819981480F591F3E
:10103000518340838A819B8193838283211531056B
:1010400009F0B0CFF0936E03E0936D039ECFFD01E6
:10105000DC01C0CF13821282D7CF4F925F926F9282
:101060007F928F929F92AF92BF92CF92DF92EF9238
:10107000FF920F931F93CF93DF938C01009799F406
:10108000CB01DF91CF911F910F91FF90EF90DF90F7
:10109000CF90BF90AF909F908F907F906F905F9018
:1010A0004F900C940807FC01E60FF71F9C0122509B
:1010B0003109E217F30708F4AEC0D901CD91DC91F4
:1010C0001197C617D70720F1C530D10578F0CE01AA
:1010D00004978617970750F0C61BD70B2297C1932A
:1010E000D1936D937C93CF010E94A407C801DF9137
:1010F000CF911F910F91FF90EF90DF90CF90BF9015
:10110000AF909F908F907F906F905F904F900895D9
:101110005B01AC1ABD0A4C018C0E9D1EA0916D03A3
:10112000B0916E03512C412CF12CE12C109731F52C
:1011300080916B0390916C038815990509F05CC050
:101140004616570608F058C080910002909101029F
:10115000009741F48DB79EB740910402509105026B
:10116000841B950BE817F90708F055C0F0936C0342
:10117000E0936B03F90171836083B8CF8D919C91EB
:10118000119712966C90129713967C901397A8154E
:10119000B90559F56C0142E0C40ED11CCA14DB0438
:1011A00020F1AC014A195B09DA011296159780F01B
:1011B0006282738251834083D9016D937C93E114E1
:1011C000F10471F0D7011396FC93EE9312978ECF32
:1011D00022968C0F9D1FF90191838083F301EFCF3D
:1011E000F0936E03E0936D0381CF4816590608F41F
:1011F0002C017D01D3019ACFCB010E9408077C010D
:10120000009749F0AE01B8010E940E09C8010E9482
:10121000A40787016BCF10E000E068CFFB01DC0181
:1012200002C001900D9241505040D8F70895FB0143
:10123000DC0101900D920020E1F70895F894FFCFB2
:1012400000006F03800000000000B501DD000A010E
:1012500002027301190165010D0A00423A312300AF
:06126000423A30230000B9
:00000001FF
